{
  "contractName": "Lottery",
  "abi": [
    {
      "inputs": [
        {
          "internalType": "uint256",
          "name": "_minParticipate",
          "type": "uint256"
        },
        {
          "internalType": "uint64",
          "name": "_endsIn",
          "type": "uint64"
        },
        {
          "internalType": "uint64",
          "name": "_VRFSubscriptionId",
          "type": "uint64"
        }
      ],
      "stateMutability": "payable",
      "type": "constructor",
      "payable": true
    },
    {
      "inputs": [
        {
          "internalType": "address",
          "name": "have",
          "type": "address"
        },
        {
          "internalType": "address",
          "name": "want",
          "type": "address"
        }
      ],
      "name": "OnlyCoordinatorCanFulfill",
      "type": "error"
    },
    {
      "anonymous": false,
      "inputs": [
        {
          "indexed": true,
          "internalType": "address",
          "name": "previousOwner",
          "type": "address"
        },
        {
          "indexed": true,
          "internalType": "address",
          "name": "newOwner",
          "type": "address"
        }
      ],
      "name": "OwnershipTransferred",
      "type": "event"
    },
    {
      "anonymous": false,
      "inputs": [
        {
          "indexed": false,
          "internalType": "address",
          "name": "winner",
          "type": "address"
        },
        {
          "indexed": false,
          "internalType": "uint256",
          "name": "rewardSent",
          "type": "uint256"
        }
      ],
      "name": "WinnerFound",
      "type": "event"
    },
    {
      "inputs": [],
      "name": "minParticipate",
      "outputs": [
        {
          "internalType": "uint256",
          "name": "",
          "type": "uint256"
        }
      ],
      "stateMutability": "view",
      "type": "function",
      "constant": true
    },
    {
      "inputs": [],
      "name": "owner",
      "outputs": [
        {
          "internalType": "address",
          "name": "",
          "type": "address"
        }
      ],
      "stateMutability": "view",
      "type": "function",
      "constant": true
    },
    {
      "inputs": [
        {
          "internalType": "uint256",
          "name": "requestId",
          "type": "uint256"
        },
        {
          "internalType": "uint256[]",
          "name": "randomWords",
          "type": "uint256[]"
        }
      ],
      "name": "rawFulfillRandomWords",
      "outputs": [],
      "stateMutability": "nonpayable",
      "type": "function"
    },
    {
      "inputs": [],
      "name": "renounceOwnership",
      "outputs": [],
      "stateMutability": "nonpayable",
      "type": "function"
    },
    {
      "inputs": [],
      "name": "reward",
      "outputs": [
        {
          "internalType": "uint256",
          "name": "",
          "type": "uint256"
        }
      ],
      "stateMutability": "view",
      "type": "function",
      "constant": true
    },
    {
      "inputs": [
        {
          "internalType": "address",
          "name": "newOwner",
          "type": "address"
        }
      ],
      "name": "transferOwnership",
      "outputs": [],
      "stateMutability": "nonpayable",
      "type": "function"
    },
    {
      "inputs": [],
      "name": "participate",
      "outputs": [],
      "stateMutability": "payable",
      "type": "function",
      "payable": true
    },
    {
      "inputs": [],
      "name": "drawWinner",
      "outputs": [],
      "stateMutability": "nonpayable",
      "type": "function"
    },
    {
      "inputs": [],
      "name": "withdraw",
      "outputs": [],
      "stateMutability": "nonpayable",
      "type": "function"
    },
    {
      "inputs": [],
      "name": "getTimeLeft",
      "outputs": [
        {
          "internalType": "uint256",
          "name": "",
          "type": "uint256"
        }
      ],
      "stateMutability": "view",
      "type": "function",
      "constant": true
    },
    {
      "inputs": [],
      "name": "getBalance",
      "outputs": [
        {
          "internalType": "uint256",
          "name": "",
          "type": "uint256"
        }
      ],
      "stateMutability": "view",
      "type": "function",
      "constant": true
    }
  ],
  "bytecode": "0x610140604052736168499c0cffcacd319c818142124b7a15e857ab600460006101000a81548173ffffffffffffffffffffffffffffffffffffffff021916908373ffffffffffffffffffffffffffffffffffffffff1602179055507fd89b2bf150e3b9e13446986e571fb9cab24b13cea0a43ea20a6049a85cc807cc60001b60055560405162001b4538038062001b458339818101604052810190620000a6919062000361565b600460009054906101000a900473ffffffffffffffffffffffffffffffffffffffff16620000e9620000dd6200021060201b60201c565b6200021860201b60201c565b8073ffffffffffffffffffffffffffffffffffffffff1660808173ffffffffffffffffffffffffffffffffffffffff1681525050506000341162000164576040517f08c379a00000000000000000000000000000000000000000000000000000000081526004016200015b906200041e565b60405180910390fd5b3460e08181525050826101008181525050600460009054906101000a900473ffffffffffffffffffffffffffffffffffffffff1673ffffffffffffffffffffffffffffffffffffffff1660a08173ffffffffffffffffffffffffffffffffffffffff16815250508067ffffffffffffffff1660c08167ffffffffffffffff16815250508167ffffffffffffffff1642620001ff91906200046f565b6101208181525050505050620004cc565b600033905090565b60008060009054906101000a900473ffffffffffffffffffffffffffffffffffffffff169050816000806101000a81548173ffffffffffffffffffffffffffffffffffffffff021916908373ffffffffffffffffffffffffffffffffffffffff1602179055508173ffffffffffffffffffffffffffffffffffffffff168173ffffffffffffffffffffffffffffffffffffffff167f8be0079c531659141344cd1fd0a4f28419497f9722a3daafe3b4186f6b6457e060405160405180910390a35050565b600080fd5b6000819050919050565b620002f681620002e1565b81146200030257600080fd5b50565b6000815190506200031681620002eb565b92915050565b600067ffffffffffffffff82169050919050565b6200033b816200031c565b81146200034757600080fd5b50565b6000815190506200035b8162000330565b92915050565b6000806000606084860312156200037d576200037c620002dc565b5b60006200038d8682870162000305565b9350506020620003a0868287016200034a565b9250506040620003b3868287016200034a565b9150509250925092565b600082825260208201905092915050565b7f4c6f74746572793a205265776172642063616e6e6f7420626520302e00000000600082015250565b600062000406601c83620003bd565b91506200041382620003ce565b602082019050919050565b600060208201905081810360008301526200043981620003f7565b9050919050565b7f4e487b7100000000000000000000000000000000000000000000000000000000600052601160045260246000fd5b60006200047c82620002e1565b91506200048983620002e1565b9250827fffffffffffffffffffffffffffffffffffffffffffffffffffffffffffffffff03821115620004c157620004c062000440565b5b828201905092915050565b60805160a05160c05160e05161010051610120516116066200053f600039600081816105b501526105e601526000818161061701526107440152600081816102e301528181610ac50152610b15015260006109b801526000610979015260008181610223015261027701526116066000f3fe60806040526004361061009c5760003560e01c80638da5cb5b116100645780638da5cb5b1461014e578063b2185bb114610179578063c7e284b814610190578063d11711a2146101bb578063e2abea62146101c5578063f2fde38b146101f05761009c565b806312065fe0146100a15780631fe543e3146100cc578063228cb733146100f55780633ccfd60b14610120578063715018a614610137575b600080fd5b3480156100ad57600080fd5b506100b6610219565b6040516100c39190610be4565b60405180910390f35b3480156100d857600080fd5b506100f360048036038101906100ee9190610d98565b610221565b005b34801561010157600080fd5b5061010a6102e1565b6040516101179190610be4565b60405180910390f35b34801561012c57600080fd5b50610135610305565b005b34801561014357600080fd5b5061014c610441565b005b34801561015a57600080fd5b506101636104c9565b6040516101709190610e35565b60405180910390f35b34801561018557600080fd5b5061018e6104f2565b005b34801561019c57600080fd5b506101a56105b1565b6040516101b29190610be4565b60405180910390f35b6101c3610615565b005b3480156101d157600080fd5b506101da610742565b6040516101e79190610be4565b60405180910390f35b3480156101fc57600080fd5b5061021760048036038101906102129190610e7c565b610766565b005b600047905090565b7f000000000000000000000000000000000000000000000000000000000000000073ffffffffffffffffffffffffffffffffffffffff163373ffffffffffffffffffffffffffffffffffffffff16146102d357337f00000000000000000000000000000000000000000000000000000000000000006040517f1cf993f40000000000000000000000000000000000000000000000000000000081526004016102ca929190610ea9565b60405180910390fd5b6102dd828261085d565b5050565b7f000000000000000000000000000000000000000000000000000000000000000081565b61030d6108ab565b73ffffffffffffffffffffffffffffffffffffffff1661032b6104c9565b73ffffffffffffffffffffffffffffffffffffffff1614610381576040517f08c379a000000000000000000000000000000000000000000000000000000000815260040161037890610f2f565b60405180910390fd5b600061038b6104c9565b73ffffffffffffffffffffffffffffffffffffffff166003546040516103b090610f80565b60006040518083038185875af1925050503d80600081146103ed576040519150601f19603f3d011682016040523d82523d6000602084013e6103f2565b606091505b5050905060006003819055508061043e576040517f08c379a000000000000000000000000000000000000000000000000000000000815260040161043590610fe1565b60405180910390fd5b50565b6104496108ab565b73ffffffffffffffffffffffffffffffffffffffff166104676104c9565b73ffffffffffffffffffffffffffffffffffffffff16146104bd576040517f08c379a00000000000000000000000000000000000000000000000000000000081526004016104b490610f2f565b60405180910390fd5b6104c760006108b3565b565b60008060009054906101000a900473ffffffffffffffffffffffffffffffffffffffff16905090565b60006104fc6105b1565b1461053c576040517f08c379a000000000000000000000000000000000000000000000000000000000815260040161053390611073565b60405180910390fd5b600660009054906101000a900460ff161561058c576040517f08c379a000000000000000000000000000000000000000000000000000000000815260040161058390611105565b60405180910390fd5b6001600660006101000a81548160ff0219169083151502179055506105af610977565b565b60007f000000000000000000000000000000000000000000000000000000000000000042106105e35760009050610612565b427f000000000000000000000000000000000000000000000000000000000000000061060f9190611154565b90505b90565b7f0000000000000000000000000000000000000000000000000000000000000000341015610678576040517f08c379a000000000000000000000000000000000000000000000000000000000815260040161066f906111fa565b60405180910390fd5b60006106826105b1565b036106c2576040517f08c379a00000000000000000000000000000000000000000000000000000000081526004016106b990611266565b60405180910390fd5b34600360008282546106d49190611286565b9250508190555033600260006106ea6001610a45565b815260200190815260200160002060006101000a81548173ffffffffffffffffffffffffffffffffffffffff021916908373ffffffffffffffffffffffffffffffffffffffff1602179055506107406001610a53565b565b7f000000000000000000000000000000000000000000000000000000000000000081565b61076e6108ab565b73ffffffffffffffffffffffffffffffffffffffff1661078c6104c9565b73ffffffffffffffffffffffffffffffffffffffff16146107e2576040517f08c379a00000000000000000000000000000000000000000000000000000000081526004016107d990610f2f565b60405180910390fd5b600073ffffffffffffffffffffffffffffffffffffffff168173ffffffffffffffffffffffffffffffffffffffff1603610851576040517f08c379a00000000000000000000000000000000000000000000000000000000081526004016108489061134e565b60405180910390fd5b61085a816108b3565b50565b6000600161086b6001610a45565b6108759190611286565b826000815181106108895761088861136e565b5b602002602001015161089b91906113cc565b90506108a681610a69565b505050565b600033905090565b60008060009054906101000a900473ffffffffffffffffffffffffffffffffffffffff169050816000806101000a81548173ffffffffffffffffffffffffffffffffffffffff021916908373ffffffffffffffffffffffffffffffffffffffff1602179055508173ffffffffffffffffffffffffffffffffffffffff168173ffffffffffffffffffffffffffffffffffffffff167f8be0079c531659141344cd1fd0a4f28419497f9722a3daafe3b4186f6b6457e060405160405180910390a35050565b7f000000000000000000000000000000000000000000000000000000000000000073ffffffffffffffffffffffffffffffffffffffff16635d3b1d306005547f00000000000000000000000000000000000000000000000000000000000000006003620186a060016040518663ffffffff1660e01b81526004016109ff959493929190611512565b6020604051808303816000875af1158015610a1e573d6000803e3d6000fd5b505050506040513d601f19601f82011682018060405250810190610a42919061157a565b50565b600081600001549050919050565b6001816000016000828254019250508190555050565b60006002600083815260200190815260200160002060009054906101000a900473ffffffffffffffffffffffffffffffffffffffff1690507fb5d93c368c4bd18876654db9fd5dcef5a3583ccde4d81659e7f309f36c844905817f0000000000000000000000000000000000000000000000000000000000000000604051610af29291906115a7565b60405180910390a160008173ffffffffffffffffffffffffffffffffffffffff167f0000000000000000000000000000000000000000000000000000000000000000604051610b4090610f80565b60006040518083038185875af1925050503d8060008114610b7d576040519150601f19603f3d011682016040523d82523d6000602084013e610b82565b606091505b5050905080610bc6576040517f08c379a0000000000000000000000000000000000000000000000000000000008152600401610bbd90610fe1565b60405180910390fd5b505050565b6000819050919050565b610bde81610bcb565b82525050565b6000602082019050610bf96000830184610bd5565b92915050565b6000604051905090565b600080fd5b600080fd5b610c1c81610bcb565b8114610c2757600080fd5b50565b600081359050610c3981610c13565b92915050565b600080fd5b6000601f19601f8301169050919050565b7f4e487b7100000000000000000000000000000000000000000000000000000000600052604160045260246000fd5b610c8d82610c44565b810181811067ffffffffffffffff82111715610cac57610cab610c55565b5b80604052505050565b6000610cbf610bff565b9050610ccb8282610c84565b919050565b600067ffffffffffffffff821115610ceb57610cea610c55565b5b602082029050602081019050919050565b600080fd5b6000610d14610d0f84610cd0565b610cb5565b90508083825260208201905060208402830185811115610d3757610d36610cfc565b5b835b81811015610d605780610d4c8882610c2a565b845260208401935050602081019050610d39565b5050509392505050565b600082601f830112610d7f57610d7e610c3f565b5b8135610d8f848260208601610d01565b91505092915050565b60008060408385031215610daf57610dae610c09565b5b6000610dbd85828601610c2a565b925050602083013567ffffffffffffffff811115610dde57610ddd610c0e565b5b610dea85828601610d6a565b9150509250929050565b600073ffffffffffffffffffffffffffffffffffffffff82169050919050565b6000610e1f82610df4565b9050919050565b610e2f81610e14565b82525050565b6000602082019050610e4a6000830184610e26565b92915050565b610e5981610e14565b8114610e6457600080fd5b50565b600081359050610e7681610e50565b92915050565b600060208284031215610e9257610e91610c09565b5b6000610ea084828501610e67565b91505092915050565b6000604082019050610ebe6000830185610e26565b610ecb6020830184610e26565b9392505050565b600082825260208201905092915050565b7f4f776e61626c653a2063616c6c6572206973206e6f7420746865206f776e6572600082015250565b6000610f19602083610ed2565b9150610f2482610ee3565b602082019050919050565b60006020820190508181036000830152610f4881610f0c565b9050919050565b600081905092915050565b50565b6000610f6a600083610f4f565b9150610f7582610f5a565b600082019050919050565b6000610f8b82610f5d565b9150819050919050565b7f4c6f74746572793a20455448207472616e73666572206661696c65642e000000600082015250565b6000610fcb601d83610ed2565b9150610fd682610f95565b602082019050919050565b60006020820190508181036000830152610ffa81610fbe565b9050919050565b7f4c6f74746572793a204c6f7474657279206973206e6f7420636c6f736564207960008201527f65742e0000000000000000000000000000000000000000000000000000000000602082015250565b600061105d602383610ed2565b915061106882611001565b604082019050919050565b6000602082019050818103600083015261108c81611050565b9050919050565b7f4c6f74746572793a204c6f74746572792068617320666f756e642077696e6e6560008201527f7220616c72656164792e00000000000000000000000000000000000000000000602082015250565b60006110ef602a83610ed2565b91506110fa82611093565b604082019050919050565b6000602082019050818103600083015261111e816110e2565b9050919050565b7f4e487b7100000000000000000000000000000000000000000000000000000000600052601160045260246000fd5b600061115f82610bcb565b915061116a83610bcb565b92508282101561117d5761117c611125565b5b828203905092915050565b7f4c6f74746572793a204c6f74746572792070617274696369706174696f6e207460008201527f68726573686f6c64206e6f7420726561636865642e0000000000000000000000602082015250565b60006111e4603583610ed2565b91506111ef82611188565b604082019050919050565b60006020820190508181036000830152611213816111d7565b9050919050565b7f4c6f74746572793a204c6f747465727920697320636c6f7365642e0000000000600082015250565b6000611250601b83610ed2565b915061125b8261121a565b602082019050919050565b6000602082019050818103600083015261127f81611243565b9050919050565b600061129182610bcb565b915061129c83610bcb565b9250827fffffffffffffffffffffffffffffffffffffffffffffffffffffffffffffffff038211156112d1576112d0611125565b5b828201905092915050565b7f4f776e61626c653a206e6577206f776e657220697320746865207a65726f206160008201527f6464726573730000000000000000000000000000000000000000000000000000602082015250565b6000611338602683610ed2565b9150611343826112dc565b604082019050919050565b600060208201905081810360008301526113678161132b565b9050919050565b7f4e487b7100000000000000000000000000000000000000000000000000000000600052603260045260246000fd5b7f4e487b7100000000000000000000000000000000000000000000000000000000600052601260045260246000fd5b60006113d782610bcb565b91506113e283610bcb565b9250826113f2576113f161139d565b5b828206905092915050565b6000819050919050565b611410816113fd565b82525050565b600067ffffffffffffffff82169050919050565b61143381611416565b82525050565b6000819050919050565b600061ffff82169050919050565b6000819050919050565b600061147661147161146c84611439565b611451565b611443565b9050919050565b6114868161145b565b82525050565b6000819050919050565b600063ffffffff82169050919050565b60006114c16114bc6114b78461148c565b611451565b611496565b9050919050565b6114d1816114a6565b82525050565b6000819050919050565b60006114fc6114f76114f2846114d7565b611451565b611496565b9050919050565b61150c816114e1565b82525050565b600060a0820190506115276000830188611407565b611534602083018761142a565b611541604083018661147d565b61154e60608301856114c8565b61155b6080830184611503565b9695505050505050565b60008151905061157481610c13565b92915050565b6000602082840312156115905761158f610c09565b5b600061159e84828501611565565b91505092915050565b60006040820190506115bc6000830185610e26565b6115c96020830184610bd5565b939250505056fea2646970667358221220992285f8ef383e8ff4542325ed4f5222a5f18af97e173e144174fafb962476fe64736f6c634300080d0033",
  "immutableReferences": {
    "10": [
      {
        "length": 32,
        "start": 547
      },
      {
        "length": 32,
        "start": 631
      }
    ],
    "379": [
      {
        "length": 32,
        "start": 2425
      }
    ],
    "381": [
      {
        "length": 32,
        "start": 2488
      }
    ],
    "389": [
      {
        "length": 32,
        "start": 739
      },
      {
        "length": 32,
        "start": 2757
      },
      {
        "length": 32,
        "start": 2837
      }
    ],
    "391": [
      {
        "length": 32,
        "start": 1559
      },
      {
        "length": 32,
        "start": 1860
      }
    ],
    "393": [
      {
        "length": 32,
        "start": 1461
      },
      {
        "length": 32,
        "start": 1510
      }
    ]
  },
  "source": "// SPDX-License-Identifier: MIT\npragma solidity ^0.8.0;\n\nimport \"@openzeppelin/contracts/access/Ownable.sol\";\nimport \"@openzeppelin/contracts/utils/Counters.sol\";\nimport \"@chainlink/contracts/src/v0.8/VRFConsumerBaseV2.sol\";\nimport \"@chainlink/contracts/src/v0.8/interfaces/VRFCoordinatorV2Interface.sol\";\n\ncontract Lottery is Ownable, VRFConsumerBaseV2 {\n    using Counters for Counters.Counter;\n\n    event WinnerFound(address winner, uint256 rewardSent);\n\n    Counters.Counter participantCounter;\n    mapping ( uint => address ) participants;\n\n    uint256 private _balance;\n\n    VRFCoordinatorV2Interface immutable private _coordinator;\n    uint64 immutable private _VRFSubId;\n\n    // valid for Rinkeby\n    address private _coordinatorAddress = 0x6168499c0cFfCaCD319c818142124B7A15E857ab;\n    bytes32 private _keyHash = 0xd89b2bf150e3b9e13446986e571fb9cab24b13cea0a43ea20a6049a85cc807cc;\n\n    uint256 immutable public reward;\n    uint256 immutable public minParticipate;\n    uint256 immutable private _endsAt;\n\n    bool isExectued;\n\n    constructor(uint256 _minParticipate, uint64 _endsIn, uint64 _VRFSubscriptionId) VRFConsumerBaseV2(_coordinatorAddress) payable {\n        require(msg.value > 0, \"Lottery: Reward cannot be 0.\");\n        reward = msg.value;\n        minParticipate = _minParticipate;\n        _coordinator = VRFCoordinatorV2Interface(_coordinatorAddress);\n        _VRFSubId = _VRFSubscriptionId;\n        _endsAt = block.timestamp + _endsIn;\n    }\n\n    function participate() public payable {\n        require(msg.value >= minParticipate, \"Lottery: Lottery participation threshold not reached.\");\n        require(getTimeLeft() != 0, \"Lottery: Lottery is closed.\");\n        _balance += msg.value;\n        participants[participantCounter.current()] = msg.sender;\n        participantCounter.increment();\n    }\n\n    function drawWinner() public {\n        require(getTimeLeft() == 0, \"Lottery: Lottery is not closed yet.\");\n        require(!isExectued, \"Lottery: Lottery has found winner already.\");\n        isExectued = true; // prevent re-entrancy\n        _requestRandomWords();\n    }\n\n    function _requestRandomWords() internal {\n        _coordinator.requestRandomWords(_keyHash, _VRFSubId, 3, 100000, 1); // reqConfs, gasCallLimit, reqWords\n    }\n\n    function fulfillRandomWords(uint256 /* requestId */, uint256[] memory _randWords) internal override {\n        uint256 winnerIdx = _randWords[0] % (participantCounter.current() + 1);\n        _sendRewardToWinner(winnerIdx);\n    }\n\n    function _sendRewardToWinner(uint256 _winnerIdx) internal {\n        address winner = participants[_winnerIdx];\n        emit WinnerFound(winner, reward);        \n        (bool sent, /* data */) = winner.call{ value: reward }(\"\");\n        require(sent, \"Lottery: ETH transfer failed.\");\n\n    } \n\n    function withdraw() public onlyOwner {\n        (bool sent, /* data */) = owner().call{ value: _balance }(\"\"); // unable to withdraw lottery reward\n        _balance = 0;\n        require(sent, \"Lottery: ETH transfer failed.\");\n    }\n\n    function getTimeLeft() public view returns(uint) {\n        if (block.timestamp >= _endsAt) return 0;\n        return _endsAt - block.timestamp;\n    }\n\n    function getBalance() public view returns(uint) {\n        return address(this).balance;\n    }\n\n}",
  "sourcePath": "/Users/matkuch/Code/chainlink-vrf-lottery/contracts/Lottery.sol",
  "compiler": {
    "name": "solc",
    "version": "0.8.13+commit.abaa5c0e.Emscripten.clang"
  },
  "schemaVersion": "3.4.7",
  "updatedAt": "2022-05-02T05:29:28.939Z",
  "networkType": "ethereum",
  "devdoc": {
    "kind": "dev",
    "methods": {
      "owner()": {
        "details": "Returns the address of the current owner."
      },
      "renounceOwnership()": {
        "details": "Leaves the contract without owner. It will not be possible to call `onlyOwner` functions anymore. Can only be called by the current owner. NOTE: Renouncing ownership will leave the contract without an owner, thereby removing any functionality that is only available to the owner."
      },
      "transferOwnership(address)": {
        "details": "Transfers ownership of the contract to a new account (`newOwner`). Can only be called by the current owner."
      }
    },
    "version": 1
  },
  "userdoc": {
    "kind": "user",
    "methods": {},
    "version": 1
  }
}